{
  "_format": "hh-sol-artifact-1",
  "contractName": "kycInfoContract",
  "sourceName": "contracts/kycDetailsContract.sol",
  "abi": [
    {
      "inputs": [
        {
          "internalType": "uint256",
          "name": "_kycId",
          "type": "uint256"
        }
      ],
      "name": "getKycDetailbynumber",
      "outputs": [
        {
          "components": [
            {
              "internalType": "uint256",
              "name": "kycId",
              "type": "uint256"
            },
            {
              "internalType": "string",
              "name": "userName",
              "type": "string"
            },
            {
              "internalType": "address",
              "name": "userAddress",
              "type": "address"
            },
            {
              "internalType": "string",
              "name": "kycTimestamp",
              "type": "string"
            },
            {
              "internalType": "bytes",
              "name": "kycDetails",
              "type": "bytes"
            }
          ],
          "internalType": "struct kycInfoContract.kycInfo",
          "name": "",
          "type": "tuple"
        }
      ],
      "stateMutability": "view",
      "type": "function"
    },
    {
      "inputs": [
        {
          "internalType": "uint256",
          "name": "",
          "type": "uint256"
        }
      ],
      "name": "kycInformation",
      "outputs": [
        {
          "internalType": "uint256",
          "name": "kycId",
          "type": "uint256"
        },
        {
          "internalType": "string",
          "name": "userName",
          "type": "string"
        },
        {
          "internalType": "address",
          "name": "userAddress",
          "type": "address"
        },
        {
          "internalType": "string",
          "name": "kycTimestamp",
          "type": "string"
        },
        {
          "internalType": "bytes",
          "name": "kycDetails",
          "type": "bytes"
        }
      ],
      "stateMutability": "view",
      "type": "function"
    },
    {
      "inputs": [
        {
          "internalType": "uint256",
          "name": "_kycId",
          "type": "uint256"
        },
        {
          "internalType": "string",
          "name": "_userName",
          "type": "string"
        },
        {
          "internalType": "address",
          "name": "_userAddress",
          "type": "address"
        },
        {
          "internalType": "string",
          "name": "_kycTimestamp",
          "type": "string"
        },
        {
          "internalType": "bytes",
          "name": "_kycDetails",
          "type": "bytes"
        }
      ],
      "name": "saveKycInformation",
      "outputs": [],
      "stateMutability": "nonpayable",
      "type": "function"
    }
  ],
  "bytecode": "0x608060405234801561001057600080fd5b50610e34806100206000396000f3fe608060405234801561001057600080fd5b50600436106100415760003560e01c806335ab984914610046578063bcaa290b1461007a578063fc738c7814610096575b600080fd5b610060600480360381019061005b9190610889565b6100c6565b604051610071959493929190610b37565b60405180910390f35b610094600480360381019061008f91906108b2565b6102b4565b005b6100b060048036038101906100ab9190610889565b6103df565b6040516100bd9190610b15565b60405180910390f35b60006020528060005260406000206000915090508060000154908060010180546100ef90610cfe565b80601f016020809104026020016040519081016040528092919081815260200182805461011b90610cfe565b80156101685780601f1061013d57610100808354040283529160200191610168565b820191906000526020600020905b81548152906001019060200180831161014b57829003601f168201915b5050505050908060020160009054906101000a900473ffffffffffffffffffffffffffffffffffffffff16908060030180546101a390610cfe565b80601f01602080910402602001604051908101604052809291908181526020018280546101cf90610cfe565b801561021c5780601f106101f15761010080835404028352916020019161021c565b820191906000526020600020905b8154815290600101906020018083116101ff57829003601f168201915b50505050509080600401805461023190610cfe565b80601f016020809104026020016040519081016040528092919081815260200182805461025d90610cfe565b80156102aa5780601f1061027f576101008083540402835291602001916102aa565b820191906000526020600020905b81548152906001019060200180831161028d57829003601f168201915b5050505050905085565b6102bc610621565b8581600001818152505084816020018190525083816040019073ffffffffffffffffffffffffffffffffffffffff16908173ffffffffffffffffffffffffffffffffffffffff168152505082816060018190525081816080018190525080600080888152602001908152602001600020600082015181600001556020820151816001019080519060200190610352929190610666565b5060408201518160020160006101000a81548173ffffffffffffffffffffffffffffffffffffffff021916908373ffffffffffffffffffffffffffffffffffffffff16021790555060608201518160030190805190602001906103b6929190610666565b5060808201518160040190805190602001906103d39291906106ec565b50905050505050505050565b6103e7610621565b6000808381526020019081526020016000206040518060a00160405290816000820154815260200160018201805461041e90610cfe565b80601f016020809104026020016040519081016040528092919081815260200182805461044a90610cfe565b80156104975780601f1061046c57610100808354040283529160200191610497565b820191906000526020600020905b81548152906001019060200180831161047a57829003601f168201915b505050505081526020016002820160009054906101000a900473ffffffffffffffffffffffffffffffffffffffff1673ffffffffffffffffffffffffffffffffffffffff1673ffffffffffffffffffffffffffffffffffffffff16815260200160038201805461050690610cfe565b80601f016020809104026020016040519081016040528092919081815260200182805461053290610cfe565b801561057f5780601f106105545761010080835404028352916020019161057f565b820191906000526020600020905b81548152906001019060200180831161056257829003601f168201915b5050505050815260200160048201805461059890610cfe565b80601f01602080910402602001604051908101604052809291908181526020018280546105c490610cfe565b80156106115780601f106105e657610100808354040283529160200191610611565b820191906000526020600020905b8154815290600101906020018083116105f457829003601f168201915b5050505050815250509050919050565b6040518060a001604052806000815260200160608152602001600073ffffffffffffffffffffffffffffffffffffffff16815260200160608152602001606081525090565b82805461067290610cfe565b90600052602060002090601f01602090048101928261069457600085556106db565b82601f106106ad57805160ff19168380011785556106db565b828001600101855582156106db579182015b828111156106da5782518255916020019190600101906106bf565b5b5090506106e89190610772565b5090565b8280546106f890610cfe565b90600052602060002090601f01602090048101928261071a5760008555610761565b82601f1061073357805160ff1916838001178555610761565b82800160010185558215610761579182015b82811115610760578251825591602001919060010190610745565b5b50905061076e9190610772565b5090565b5b8082111561078b576000816000905550600101610773565b5090565b60006107a261079d84610bc4565b610b9f565b9050828152602081018484840111156107ba57600080fd5b6107c5848285610cbc565b509392505050565b60006107e06107db84610bf5565b610b9f565b9050828152602081018484840111156107f857600080fd5b610803848285610cbc565b509392505050565b60008135905061081a81610dd0565b92915050565b600082601f83011261083157600080fd5b813561084184826020860161078f565b91505092915050565b600082601f83011261085b57600080fd5b813561086b8482602086016107cd565b91505092915050565b60008135905061088381610de7565b92915050565b60006020828403121561089b57600080fd5b60006108a984828501610874565b91505092915050565b600080600080600060a086880312156108ca57600080fd5b60006108d888828901610874565b955050602086013567ffffffffffffffff8111156108f557600080fd5b6109018882890161084a565b94505060406109128882890161080b565b935050606086013567ffffffffffffffff81111561092f57600080fd5b61093b8882890161084a565b925050608086013567ffffffffffffffff81111561095857600080fd5b61096488828901610820565b9150509295509295909350565b61097a81610c80565b82525050565b61098981610c80565b82525050565b600061099a82610c26565b6109a48185610c3c565b93506109b4818560208601610ccb565b6109bd81610dbf565b840191505092915050565b60006109d382610c26565b6109dd8185610c4d565b93506109ed818560208601610ccb565b6109f681610dbf565b840191505092915050565b6000610a0c82610c31565b610a168185610c5e565b9350610a26818560208601610ccb565b610a2f81610dbf565b840191505092915050565b6000610a4582610c31565b610a4f8185610c6f565b9350610a5f818560208601610ccb565b610a6881610dbf565b840191505092915050565b600060a083016000830151610a8b6000860182610af7565b5060208301518482036020860152610aa38282610a01565b9150506040830151610ab86040860182610971565b5060608301518482036060860152610ad08282610a01565b91505060808301518482036080860152610aea828261098f565b9150508091505092915050565b610b0081610cb2565b82525050565b610b0f81610cb2565b82525050565b60006020820190508181036000830152610b2f8184610a73565b905092915050565b600060a082019050610b4c6000830188610b06565b8181036020830152610b5e8187610a3a565b9050610b6d6040830186610980565b8181036060830152610b7f8185610a3a565b90508181036080830152610b9381846109c8565b90509695505050505050565b6000610ba9610bba565b9050610bb58282610d30565b919050565b6000604051905090565b600067ffffffffffffffff821115610bdf57610bde610d90565b5b610be882610dbf565b9050602081019050919050565b600067ffffffffffffffff821115610c1057610c0f610d90565b5b610c1982610dbf565b9050602081019050919050565b600081519050919050565b600081519050919050565b600082825260208201905092915050565b600082825260208201905092915050565b600082825260208201905092915050565b600082825260208201905092915050565b6000610c8b82610c92565b9050919050565b600073ffffffffffffffffffffffffffffffffffffffff82169050919050565b6000819050919050565b82818337600083830152505050565b60005b83811015610ce9578082015181840152602081019050610cce565b83811115610cf8576000848401525b50505050565b60006002820490506001821680610d1657607f821691505b60208210811415610d2a57610d29610d61565b5b50919050565b610d3982610dbf565b810181811067ffffffffffffffff82111715610d5857610d57610d90565b5b80604052505050565b7f4e487b7100000000000000000000000000000000000000000000000000000000600052602260045260246000fd5b7f4e487b7100000000000000000000000000000000000000000000000000000000600052604160045260246000fd5b6000601f19601f8301169050919050565b610dd981610c80565b8114610de457600080fd5b50565b610df081610cb2565b8114610dfb57600080fd5b5056fea26469706673582212207754eaca37d91e2ac7ad96993030d2cd418bde8f4c74d4ac7cb52cd3a47b9f1164736f6c63430008040033",
  "linkReferences": {},
  "deployedLinkReferences": {}
}