{
  "_format": "hh-sol-artifact-1",
  "contractName": "assetsContract",
  "sourceName": "contracts/assetsContract.sol",
  "abi": [
    {
      "inputs": [
        {
          "internalType": "uint256",
          "name": "",
          "type": "uint256"
        }
      ],
      "name": "Assets",
      "outputs": [
        {
          "internalType": "string",
          "name": "name",
          "type": "string"
        },
        {
          "internalType": "string",
          "name": "owner",
          "type": "string"
        },
        {
          "internalType": "string",
          "name": "dor",
          "type": "string"
        },
        {
          "internalType": "uint256",
          "name": "id",
          "type": "uint256"
        },
        {
          "internalType": "string",
          "name": "status",
          "type": "string"
        }
      ],
      "stateMutability": "view",
      "type": "function"
    },
    {
      "inputs": [
        {
          "internalType": "uint256",
          "name": "_id",
          "type": "uint256"
        }
      ],
      "name": "getAsset",
      "outputs": [
        {
          "components": [
            {
              "internalType": "string",
              "name": "name",
              "type": "string"
            },
            {
              "internalType": "string",
              "name": "owner",
              "type": "string"
            },
            {
              "internalType": "string",
              "name": "dor",
              "type": "string"
            },
            {
              "internalType": "uint256",
              "name": "id",
              "type": "uint256"
            },
            {
              "internalType": "string",
              "name": "status",
              "type": "string"
            }
          ],
          "internalType": "struct assetsContract.asset",
          "name": "",
          "type": "tuple"
        }
      ],
      "stateMutability": "view",
      "type": "function"
    },
    {
      "inputs": [
        {
          "internalType": "string",
          "name": "_name",
          "type": "string"
        },
        {
          "internalType": "string",
          "name": "_owner",
          "type": "string"
        },
        {
          "internalType": "string",
          "name": "_dor",
          "type": "string"
        },
        {
          "internalType": "uint256",
          "name": "_id",
          "type": "uint256"
        },
        {
          "internalType": "string",
          "name": "_status",
          "type": "string"
        }
      ],
      "name": "saveAsset",
      "outputs": [],
      "stateMutability": "nonpayable",
      "type": "function"
    },
    {
      "inputs": [
        {
          "internalType": "uint256",
          "name": "_id",
          "type": "uint256"
        }
      ],
      "name": "trackAsset",
      "outputs": [
        {
          "internalType": "string",
          "name": "",
          "type": "string"
        }
      ],
      "stateMutability": "view",
      "type": "function"
    }
  ],
  "bytecode": "0x608060405234801561001057600080fd5b50610d5d806100206000396000f3fe608060405234801561001057600080fd5b506004361061004c5760003560e01c80634b4a80ba146100515780637e862808146100855780639b1195c9146100b5578063eac8f5b8146100d1575b600080fd5b61006b60048036038101906100669190610978565b610101565b60405161007c959493929190610ade565b60405180910390f35b61009f600480360381019061009a9190610978565b610357565b6040516100ac9190610abc565b60405180910390f35b6100cf60048036038101906100ca91906108a1565b6103fe565b005b6100eb60048036038101906100e69190610978565b6104d4565b6040516100f89190610b4d565b60405180910390f35b600060205280600052604060002060009150905080600001805461012490610c3e565b80601f016020809104026020016040519081016040528092919081815260200182805461015090610c3e565b801561019d5780601f106101725761010080835404028352916020019161019d565b820191906000526020600020905b81548152906001019060200180831161018057829003601f168201915b5050505050908060010180546101b290610c3e565b80601f01602080910402602001604051908101604052809291908181526020018280546101de90610c3e565b801561022b5780601f106102005761010080835404028352916020019161022b565b820191906000526020600020905b81548152906001019060200180831161020e57829003601f168201915b50505050509080600201805461024090610c3e565b80601f016020809104026020016040519081016040528092919081815260200182805461026c90610c3e565b80156102b95780601f1061028e576101008083540402835291602001916102b9565b820191906000526020600020905b81548152906001019060200180831161029c57829003601f168201915b5050505050908060030154908060040180546102d490610c3e565b80601f016020809104026020016040519081016040528092919081815260200182805461030090610c3e565b801561034d5780601f106103225761010080835404028352916020019161034d565b820191906000526020600020905b81548152906001019060200180831161033057829003601f168201915b5050505050905085565b6060600080838152602001908152602001600020600401805461037990610c3e565b80601f01602080910402602001604051908101604052809291908181526020018280546103a590610c3e565b80156103f25780601f106103c7576101008083540402835291602001916103f2565b820191906000526020600020905b8154815290600101906020018083116103d557829003601f168201915b50505050509050919050565b610406610752565b8581600001819052508481602001819052508381604001819052508281606001818152505081816080018190525080600080836060015181526020019081526020016000206000820151816000019080519060200190610467929190610781565b506020820151816001019080519060200190610484929190610781565b5060408201518160020190805190602001906104a1929190610781565b506060820151816003015560808201518160040190805190602001906104c8929190610781565b50905050505050505050565b6104dc610752565b6000808381526020019081526020016000206040518060a001604052908160008201805461050990610c3e565b80601f016020809104026020016040519081016040528092919081815260200182805461053590610c3e565b80156105825780601f1061055757610100808354040283529160200191610582565b820191906000526020600020905b81548152906001019060200180831161056557829003601f168201915b5050505050815260200160018201805461059b90610c3e565b80601f01602080910402602001604051908101604052809291908181526020018280546105c790610c3e565b80156106145780601f106105e957610100808354040283529160200191610614565b820191906000526020600020905b8154815290600101906020018083116105f757829003601f168201915b5050505050815260200160028201805461062d90610c3e565b80601f016020809104026020016040519081016040528092919081815260200182805461065990610c3e565b80156106a65780601f1061067b576101008083540402835291602001916106a6565b820191906000526020600020905b81548152906001019060200180831161068957829003601f168201915b50505050508152602001600382015481526020016004820180546106c990610c3e565b80601f01602080910402602001604051908101604052809291908181526020018280546106f590610c3e565b80156107425780601f1061071757610100808354040283529160200191610742565b820191906000526020600020905b81548152906001019060200180831161072557829003601f168201915b5050505050815250509050919050565b6040518060a0016040528060608152602001606081526020016060815260200160008152602001606081525090565b82805461078d90610c3e565b90600052602060002090601f0160209004810192826107af57600085556107f6565b82601f106107c857805160ff19168380011785556107f6565b828001600101855582156107f6579182015b828111156107f55782518255916020019190600101906107da565b5b5090506108039190610807565b5090565b5b80821115610820576000816000905550600101610808565b5090565b600061083761083284610b94565b610b6f565b90508281526020810184848401111561084f57600080fd5b61085a848285610bfc565b509392505050565b600082601f83011261087357600080fd5b8135610883848260208601610824565b91505092915050565b60008135905061089b81610d10565b92915050565b600080600080600060a086880312156108b957600080fd5b600086013567ffffffffffffffff8111156108d357600080fd5b6108df88828901610862565b955050602086013567ffffffffffffffff8111156108fc57600080fd5b61090888828901610862565b945050604086013567ffffffffffffffff81111561092557600080fd5b61093188828901610862565b93505060606109428882890161088c565b925050608086013567ffffffffffffffff81111561095f57600080fd5b61096b88828901610862565b9150509295509295909350565b60006020828403121561098a57600080fd5b60006109988482850161088c565b91505092915050565b60006109ac82610bc5565b6109b68185610bd0565b93506109c6818560208601610c0b565b6109cf81610cff565b840191505092915050565b60006109e582610bc5565b6109ef8185610be1565b93506109ff818560208601610c0b565b610a0881610cff565b840191505092915050565b600060a0830160008301518482036000860152610a3082826109a1565b91505060208301518482036020860152610a4a82826109a1565b91505060408301518482036040860152610a6482826109a1565b9150506060830151610a796060860182610a9e565b5060808301518482036080860152610a9182826109a1565b9150508091505092915050565b610aa781610bf2565b82525050565b610ab681610bf2565b82525050565b60006020820190508181036000830152610ad681846109da565b905092915050565b600060a0820190508181036000830152610af881886109da565b90508181036020830152610b0c81876109da565b90508181036040830152610b2081866109da565b9050610b2f6060830185610aad565b8181036080830152610b4181846109da565b90509695505050505050565b60006020820190508181036000830152610b678184610a13565b905092915050565b6000610b79610b8a565b9050610b858282610c70565b919050565b6000604051905090565b600067ffffffffffffffff821115610baf57610bae610cd0565b5b610bb882610cff565b9050602081019050919050565b600081519050919050565b600082825260208201905092915050565b600082825260208201905092915050565b6000819050919050565b82818337600083830152505050565b60005b83811015610c29578082015181840152602081019050610c0e565b83811115610c38576000848401525b50505050565b60006002820490506001821680610c5657607f821691505b60208210811415610c6a57610c69610ca1565b5b50919050565b610c7982610cff565b810181811067ffffffffffffffff82111715610c9857610c97610cd0565b5b80604052505050565b7f4e487b7100000000000000000000000000000000000000000000000000000000600052602260045260246000fd5b7f4e487b7100000000000000000000000000000000000000000000000000000000600052604160045260246000fd5b6000601f19601f8301169050919050565b610d1981610bf2565b8114610d2457600080fd5b5056fea264697066735822122082b7f53944e2709ac42e184a6a281cd704f841a6e8009719b49558846f9763b364736f6c63430008040033",
  "linkReferences": {},
  "deployedLinkReferences": {}
}