{
  "_format": "hh-sol-artifact-1",
  "contractName": "paymentsContract",
  "sourceName": "contracts/paymentsContract.sol",
  "abi": [
    {
      "inputs": [
        {
          "internalType": "address",
          "name": "",
          "type": "address"
        }
      ],
      "name": "Transactions",
      "outputs": [
        {
          "internalType": "uint256",
          "name": "amount",
          "type": "uint256"
        },
        {
          "internalType": "address",
          "name": "from",
          "type": "address"
        },
        {
          "internalType": "address",
          "name": "to",
          "type": "address"
        },
        {
          "internalType": "string",
          "name": "timestamp",
          "type": "string"
        },
        {
          "internalType": "address",
          "name": "transactionAddress",
          "type": "address"
        }
      ],
      "stateMutability": "view",
      "type": "function"
    },
    {
      "inputs": [
        {
          "internalType": "address",
          "name": "_transactionAddress",
          "type": "address"
        }
      ],
      "name": "getPaymentsDetails",
      "outputs": [
        {
          "components": [
            {
              "internalType": "uint256",
              "name": "amount",
              "type": "uint256"
            },
            {
              "internalType": "address",
              "name": "from",
              "type": "address"
            },
            {
              "internalType": "address",
              "name": "to",
              "type": "address"
            },
            {
              "internalType": "string",
              "name": "timestamp",
              "type": "string"
            },
            {
              "internalType": "address",
              "name": "transactionAddress",
              "type": "address"
            }
          ],
          "internalType": "struct paymentsContract.transaction",
          "name": "",
          "type": "tuple"
        }
      ],
      "stateMutability": "view",
      "type": "function"
    },
    {
      "inputs": [
        {
          "internalType": "uint256",
          "name": "_amount",
          "type": "uint256"
        },
        {
          "internalType": "address",
          "name": "_to",
          "type": "address"
        },
        {
          "internalType": "string",
          "name": "_timestamp",
          "type": "string"
        },
        {
          "internalType": "address",
          "name": "_transactionAddress",
          "type": "address"
        }
      ],
      "name": "savePaymentsDetails",
      "outputs": [],
      "stateMutability": "nonpayable",
      "type": "function"
    }
  ],
  "bytecode": "0x608060405234801561001057600080fd5b50610bcb806100206000396000f3fe608060405234801561001057600080fd5b50600436106100415760003560e01c8063021658cd146100465780631773597c14610076578063d338de38146100aa575b600080fd5b610060600480360381019061005b9190610750565b6100c6565b60405161006d9190610918565b60405180910390f35b610090600480360381019061008b9190610750565b6102bc565b6040516100a195949392919061093a565b60405180910390f35b6100c460048036038101906100bf9190610779565b6103da565b005b6100ce6105aa565b6000808373ffffffffffffffffffffffffffffffffffffffff1673ffffffffffffffffffffffffffffffffffffffff1681526020019081526020016000206040518060a0016040529081600082015481526020016001820160009054906101000a900473ffffffffffffffffffffffffffffffffffffffff1673ffffffffffffffffffffffffffffffffffffffff1673ffffffffffffffffffffffffffffffffffffffff1681526020016002820160009054906101000a900473ffffffffffffffffffffffffffffffffffffffff1673ffffffffffffffffffffffffffffffffffffffff1673ffffffffffffffffffffffffffffffffffffffff1681526020016003820180546101dd90610a95565b80601f016020809104026020016040519081016040528092919081815260200182805461020990610a95565b80156102565780601f1061022b57610100808354040283529160200191610256565b820191906000526020600020905b81548152906001019060200180831161023957829003601f168201915b505050505081526020016004820160009054906101000a900473ffffffffffffffffffffffffffffffffffffffff1673ffffffffffffffffffffffffffffffffffffffff1673ffffffffffffffffffffffffffffffffffffffff16815250509050919050565b60006020528060005260406000206000915090508060000154908060010160009054906101000a900473ffffffffffffffffffffffffffffffffffffffff16908060020160009054906101000a900473ffffffffffffffffffffffffffffffffffffffff169080600301805461033190610a95565b80601f016020809104026020016040519081016040528092919081815260200182805461035d90610a95565b80156103aa5780601f1061037f576101008083540402835291602001916103aa565b820191906000526020600020905b81548152906001019060200180831161038d57829003601f168201915b5050505050908060040160009054906101000a900473ffffffffffffffffffffffffffffffffffffffff16905085565b6103e26105aa565b8481600001818152505083816040019073ffffffffffffffffffffffffffffffffffffffff16908173ffffffffffffffffffffffffffffffffffffffff168152505082816060018190525033816020019073ffffffffffffffffffffffffffffffffffffffff16908173ffffffffffffffffffffffffffffffffffffffff1681525050806000808473ffffffffffffffffffffffffffffffffffffffff1673ffffffffffffffffffffffffffffffffffffffff1681526020019081526020016000206000820151816000015560208201518160010160006101000a81548173ffffffffffffffffffffffffffffffffffffffff021916908373ffffffffffffffffffffffffffffffffffffffff16021790555060408201518160020160006101000a81548173ffffffffffffffffffffffffffffffffffffffff021916908373ffffffffffffffffffffffffffffffffffffffff160217905550606082015181600301908051906020019061055892919061061b565b5060808201518160040160006101000a81548173ffffffffffffffffffffffffffffffffffffffff021916908373ffffffffffffffffffffffffffffffffffffffff1602179055509050505050505050565b6040518060a0016040528060008152602001600073ffffffffffffffffffffffffffffffffffffffff168152602001600073ffffffffffffffffffffffffffffffffffffffff16815260200160608152602001600073ffffffffffffffffffffffffffffffffffffffff1681525090565b82805461062790610a95565b90600052602060002090601f0160209004810192826106495760008555610690565b82601f1061066257805160ff1916838001178555610690565b82800160010185558215610690579182015b8281111561068f578251825591602001919060010190610674565b5b50905061069d91906106a1565b5090565b5b808211156106ba5760008160009055506001016106a2565b5090565b60006106d16106cc846109b9565b610994565b9050828152602081018484840111156106e957600080fd5b6106f4848285610a53565b509392505050565b60008135905061070b81610b67565b92915050565b600082601f83011261072257600080fd5b81356107328482602086016106be565b91505092915050565b60008135905061074a81610b7e565b92915050565b60006020828403121561076257600080fd5b6000610770848285016106fc565b91505092915050565b6000806000806080858703121561078f57600080fd5b600061079d8782880161073b565b94505060206107ae878288016106fc565b935050604085013567ffffffffffffffff8111156107cb57600080fd5b6107d787828801610711565b92505060606107e8878288016106fc565b91505092959194509250565b6107fd81610a17565b82525050565b61080c81610a17565b82525050565b600061081d826109ea565b61082781856109f5565b9350610837818560208601610a62565b61084081610b56565b840191505092915050565b6000610856826109ea565b6108608185610a06565b9350610870818560208601610a62565b61087981610b56565b840191505092915050565b600060a08301600083015161089c60008601826108fa565b5060208301516108af60208601826107f4565b5060408301516108c260408601826107f4565b50606083015184820360608601526108da8282610812565b91505060808301516108ef60808601826107f4565b508091505092915050565b61090381610a49565b82525050565b61091281610a49565b82525050565b600060208201905081810360008301526109328184610884565b905092915050565b600060a08201905061094f6000830188610909565b61095c6020830187610803565b6109696040830186610803565b818103606083015261097b818561084b565b905061098a6080830184610803565b9695505050505050565b600061099e6109af565b90506109aa8282610ac7565b919050565b6000604051905090565b600067ffffffffffffffff8211156109d4576109d3610b27565b5b6109dd82610b56565b9050602081019050919050565b600081519050919050565b600082825260208201905092915050565b600082825260208201905092915050565b6000610a2282610a29565b9050919050565b600073ffffffffffffffffffffffffffffffffffffffff82169050919050565b6000819050919050565b82818337600083830152505050565b60005b83811015610a80578082015181840152602081019050610a65565b83811115610a8f576000848401525b50505050565b60006002820490506001821680610aad57607f821691505b60208210811415610ac157610ac0610af8565b5b50919050565b610ad082610b56565b810181811067ffffffffffffffff82111715610aef57610aee610b27565b5b80604052505050565b7f4e487b7100000000000000000000000000000000000000000000000000000000600052602260045260246000fd5b7f4e487b7100000000000000000000000000000000000000000000000000000000600052604160045260246000fd5b6000601f19601f8301169050919050565b610b7081610a17565b8114610b7b57600080fd5b50565b610b8781610a49565b8114610b9257600080fd5b5056fea26469706673582212202d6187b8f9f022052b43dd039db111a9ab6319dbc25de729868fade81b46354664736f6c63430008040033",
  "linkReferences": {},
  "deployedLinkReferences": {}
}