{
  "contractName": "watchContract",
  "abi": [
    {
      "inputs": [
        {
          "internalType": "address",
          "name": "",
          "type": "address"
        }
      ],
      "name": "watchDetail",
      "outputs": [
        {
          "internalType": "string",
          "name": "ownerName",
          "type": "string"
        },
        {
          "internalType": "bool",
          "name": "watchInsured",
          "type": "bool"
        },
        {
          "internalType": "string",
          "name": "dateOfLoss",
          "type": "string"
        },
        {
          "internalType": "string",
          "name": "cityOfLoss",
          "type": "string"
        },
        {
          "internalType": "string",
          "name": "lossDescription",
          "type": "string"
        },
        {
          "internalType": "string",
          "name": "brand",
          "type": "string"
        },
        {
          "internalType": "string",
          "name": "model",
          "type": "string"
        },
        {
          "internalType": "uint256",
          "name": "serialNumber",
          "type": "uint256"
        },
        {
          "internalType": "string",
          "name": "description",
          "type": "string"
        },
        {
          "internalType": "string",
          "name": "material",
          "type": "string"
        },
        {
          "components": [
            {
              "internalType": "string",
              "name": "filePath",
              "type": "string"
            },
            {
              "internalType": "bool",
              "name": "watchStatus",
              "type": "bool"
            },
            {
              "internalType": "address",
              "name": "ownerAddress",
              "type": "address"
            }
          ],
          "internalType": "struct watchContract.watchinfo",
          "name": "info",
          "type": "tuple"
        }
      ],
      "stateMutability": "view",
      "type": "function",
      "constant": true
    },
    {
      "inputs": [
        {
          "internalType": "uint256",
          "name": "",
          "type": "uint256"
        }
      ],
      "name": "watches",
      "outputs": [
        {
          "internalType": "string",
          "name": "ownerName",
          "type": "string"
        },
        {
          "internalType": "bool",
          "name": "watchInsured",
          "type": "bool"
        },
        {
          "internalType": "string",
          "name": "dateOfLoss",
          "type": "string"
        },
        {
          "internalType": "string",
          "name": "cityOfLoss",
          "type": "string"
        },
        {
          "internalType": "string",
          "name": "lossDescription",
          "type": "string"
        },
        {
          "internalType": "string",
          "name": "brand",
          "type": "string"
        },
        {
          "internalType": "string",
          "name": "model",
          "type": "string"
        },
        {
          "internalType": "uint256",
          "name": "serialNumber",
          "type": "uint256"
        },
        {
          "internalType": "string",
          "name": "description",
          "type": "string"
        },
        {
          "internalType": "string",
          "name": "material",
          "type": "string"
        },
        {
          "components": [
            {
              "internalType": "string",
              "name": "filePath",
              "type": "string"
            },
            {
              "internalType": "bool",
              "name": "watchStatus",
              "type": "bool"
            },
            {
              "internalType": "address",
              "name": "ownerAddress",
              "type": "address"
            }
          ],
          "internalType": "struct watchContract.watchinfo",
          "name": "info",
          "type": "tuple"
        }
      ],
      "stateMutability": "view",
      "type": "function",
      "constant": true
    },
    {
      "inputs": [
        {
          "internalType": "string",
          "name": "_ownername",
          "type": "string"
        },
        {
          "internalType": "bool",
          "name": "_watchInsured",
          "type": "bool"
        },
        {
          "internalType": "string",
          "name": "_dateOfloss",
          "type": "string"
        },
        {
          "internalType": "string",
          "name": "_cityOfLoss",
          "type": "string"
        },
        {
          "internalType": "string",
          "name": "_lossDescription",
          "type": "string"
        },
        {
          "internalType": "string",
          "name": "_brand",
          "type": "string"
        },
        {
          "internalType": "string",
          "name": "_model",
          "type": "string"
        },
        {
          "internalType": "uint256",
          "name": "_serialNumber",
          "type": "uint256"
        },
        {
          "internalType": "string",
          "name": "_description",
          "type": "string"
        },
        {
          "internalType": "string",
          "name": "_material",
          "type": "string"
        },
        {
          "internalType": "string",
          "name": "_filePath",
          "type": "string"
        }
      ],
      "name": "saveWatchDetails",
      "outputs": [],
      "stateMutability": "nonpayable",
      "type": "function"
    },
    {
      "inputs": [],
      "name": "getNumberOfWatches",
      "outputs": [
        {
          "internalType": "uint256",
          "name": "",
          "type": "uint256"
        }
      ],
      "stateMutability": "view",
      "type": "function",
      "constant": true
    },
    {
      "inputs": [
        {
          "internalType": "string",
          "name": "ownername",
          "type": "string"
        }
      ],
      "name": "searchByName",
      "outputs": [
        {
          "components": [
            {
              "internalType": "string",
              "name": "ownerName",
              "type": "string"
            },
            {
              "internalType": "bool",
              "name": "watchInsured",
              "type": "bool"
            },
            {
              "internalType": "string",
              "name": "dateOfLoss",
              "type": "string"
            },
            {
              "internalType": "string",
              "name": "cityOfLoss",
              "type": "string"
            },
            {
              "internalType": "string",
              "name": "lossDescription",
              "type": "string"
            },
            {
              "internalType": "string",
              "name": "brand",
              "type": "string"
            },
            {
              "internalType": "string",
              "name": "model",
              "type": "string"
            },
            {
              "internalType": "uint256",
              "name": "serialNumber",
              "type": "uint256"
            },
            {
              "internalType": "string",
              "name": "description",
              "type": "string"
            },
            {
              "internalType": "string",
              "name": "material",
              "type": "string"
            },
            {
              "components": [
                {
                  "internalType": "string",
                  "name": "filePath",
                  "type": "string"
                },
                {
                  "internalType": "bool",
                  "name": "watchStatus",
                  "type": "bool"
                },
                {
                  "internalType": "address",
                  "name": "ownerAddress",
                  "type": "address"
                }
              ],
              "internalType": "struct watchContract.watchinfo",
              "name": "info",
              "type": "tuple"
            }
          ],
          "internalType": "struct watchContract.watch",
          "name": "",
          "type": "tuple"
        }
      ],
      "stateMutability": "view",
      "type": "function",
      "constant": true
    },
    {
      "inputs": [
        {
          "internalType": "uint256",
          "name": "serialNumber",
          "type": "uint256"
        }
      ],
      "name": "watchStatusByserialNumber",
      "outputs": [
        {
          "internalType": "bool",
          "name": "",
          "type": "bool"
        }
      ],
      "stateMutability": "view",
      "type": "function",
      "constant": true
    },
    {
      "inputs": [
        {
          "internalType": "uint256",
          "name": "serialNumber",
          "type": "uint256"
        },
        {
          "internalType": "bool",
          "name": "watchStatus",
          "type": "bool"
        }
      ],
      "name": "setwatchStatusByserialNumber",
      "outputs": [],
      "stateMutability": "nonpayable",
      "type": "function"
    },
    {
      "inputs": [
        {
          "internalType": "address",
          "name": "toAddress",
          "type": "address"
        },
        {
          "internalType": "uint256",
          "name": "serialNumber",
          "type": "uint256"
        }
      ],
      "name": "transferWatch",
      "outputs": [
        {
          "internalType": "bool",
          "name": "response",
          "type": "bool"
        }
      ],
      "stateMutability": "nonpayable",
      "type": "function"
    }
  ],
  "bytecode": "0x608060405234801561001057600080fd5b50612bdf806100206000396000f3fe608060405234801561001057600080fd5b50600436106100885760003560e01c8063ddbbc35c1161005b578063ddbbc35c1461014f578063f38edbd91461017f578063f64539c81461019b578063f96cce03146101cb57610088565b8063053609a11461008d5780635d328483146100bd5780637d578b8b146100f7578063d035537314610115575b600080fd5b6100a760048036038101906100a29190612482565b6101e7565b6040516100b49190612849565b60405180910390f35b6100d760048036038101906100d29190612214565b61027b565b6040516100ee9b9a99989796959493929190612864565b60405180910390f35b6100ff61082f565b60405161010c9190612970565b60405180910390f35b61012f600480360381019061012a9190612482565b61083b565b6040516101469b9a99989796959493929190612864565b60405180910390f35b61016960048036038101906101649190612279565b610dff565b604051610176919061294e565b60405180910390f35b610199600480360381019061019491906124ab565b611469565b005b6101b560048036038101906101b0919061223d565b611503565b6040516101c29190612849565b60405180910390f35b6101e560048036038101906101e091906122ba565b611a61565b005b6000806003600084815260200190815260200160002060009054906101000a900473ffffffffffffffffffffffffffffffffffffffff169050600160008273ffffffffffffffffffffffffffffffffffffffff1673ffffffffffffffffffffffffffffffffffffffff168152602001908152602001600020600a0160010160009054906101000a900460ff16915050919050565b600160205280600052604060002060009150905080600001805461029e90612ac3565b80601f01602080910402602001604051908101604052809291908181526020018280546102ca90612ac3565b80156103175780601f106102ec57610100808354040283529160200191610317565b820191906000526020600020905b8154815290600101906020018083116102fa57829003601f168201915b5050505050908060010160009054906101000a900460ff169080600201805461033f90612ac3565b80601f016020809104026020016040519081016040528092919081815260200182805461036b90612ac3565b80156103b85780601f1061038d576101008083540402835291602001916103b8565b820191906000526020600020905b81548152906001019060200180831161039b57829003601f168201915b5050505050908060030180546103cd90612ac3565b80601f01602080910402602001604051908101604052809291908181526020018280546103f990612ac3565b80156104465780601f1061041b57610100808354040283529160200191610446565b820191906000526020600020905b81548152906001019060200180831161042957829003601f168201915b50505050509080600401805461045b90612ac3565b80601f016020809104026020016040519081016040528092919081815260200182805461048790612ac3565b80156104d45780601f106104a9576101008083540402835291602001916104d4565b820191906000526020600020905b8154815290600101906020018083116104b757829003601f168201915b5050505050908060050180546104e990612ac3565b80601f016020809104026020016040519081016040528092919081815260200182805461051590612ac3565b80156105625780601f1061053757610100808354040283529160200191610562565b820191906000526020600020905b81548152906001019060200180831161054557829003601f168201915b50505050509080600601805461057790612ac3565b80601f01602080910402602001604051908101604052809291908181526020018280546105a390612ac3565b80156105f05780601f106105c5576101008083540402835291602001916105f0565b820191906000526020600020905b8154815290600101906020018083116105d357829003601f168201915b50505050509080600701549080600801805461060b90612ac3565b80601f016020809104026020016040519081016040528092919081815260200182805461063790612ac3565b80156106845780601f1061065957610100808354040283529160200191610684565b820191906000526020600020905b81548152906001019060200180831161066757829003601f168201915b50505050509080600901805461069990612ac3565b80601f01602080910402602001604051908101604052809291908181526020018280546106c590612ac3565b80156107125780601f106106e757610100808354040283529160200191610712565b820191906000526020600020905b8154815290600101906020018083116106f557829003601f168201915b50505050509080600a0160405180606001604052908160008201805461073790612ac3565b80601f016020809104026020016040519081016040528092919081815260200182805461076390612ac3565b80156107b05780601f10610785576101008083540402835291602001916107b0565b820191906000526020600020905b81548152906001019060200180831161079357829003601f168201915b505050505081526020016001820160009054906101000a900460ff161515151581526020016001820160019054906101000a900473ffffffffffffffffffffffffffffffffffffffff1673ffffffffffffffffffffffffffffffffffffffff1673ffffffffffffffffffffffffffffffffffffffff168152505090508b565b60008080549050905090565b6000818154811061084b57600080fd5b90600052602060002090600c020160009150905080600001805461086e90612ac3565b80601f016020809104026020016040519081016040528092919081815260200182805461089a90612ac3565b80156108e75780601f106108bc576101008083540402835291602001916108e7565b820191906000526020600020905b8154815290600101906020018083116108ca57829003601f168201915b5050505050908060010160009054906101000a900460ff169080600201805461090f90612ac3565b80601f016020809104026020016040519081016040528092919081815260200182805461093b90612ac3565b80156109885780601f1061095d57610100808354040283529160200191610988565b820191906000526020600020905b81548152906001019060200180831161096b57829003601f168201915b50505050509080600301805461099d90612ac3565b80601f01602080910402602001604051908101604052809291908181526020018280546109c990612ac3565b8015610a165780601f106109eb57610100808354040283529160200191610a16565b820191906000526020600020905b8154815290600101906020018083116109f957829003601f168201915b505050505090806004018054610a2b90612ac3565b80601f0160208091040260200160405190810160405280929190818152602001828054610a5790612ac3565b8015610aa45780601f10610a7957610100808354040283529160200191610aa4565b820191906000526020600020905b815481529060010190602001808311610a8757829003601f168201915b505050505090806005018054610ab990612ac3565b80601f0160208091040260200160405190810160405280929190818152602001828054610ae590612ac3565b8015610b325780601f10610b0757610100808354040283529160200191610b32565b820191906000526020600020905b815481529060010190602001808311610b1557829003601f168201915b505050505090806006018054610b4790612ac3565b80601f0160208091040260200160405190810160405280929190818152602001828054610b7390612ac3565b8015610bc05780601f10610b9557610100808354040283529160200191610bc0565b820191906000526020600020905b815481529060010190602001808311610ba357829003601f168201915b505050505090806007015490806008018054610bdb90612ac3565b80601f0160208091040260200160405190810160405280929190818152602001828054610c0790612ac3565b8015610c545780601f10610c2957610100808354040283529160200191610c54565b820191906000526020600020905b815481529060010190602001808311610c3757829003601f168201915b505050505090806009018054610c6990612ac3565b80601f0160208091040260200160405190810160405280929190818152602001828054610c9590612ac3565b8015610ce25780601f10610cb757610100808354040283529160200191610ce2565b820191906000526020600020905b815481529060010190602001808311610cc557829003601f168201915b50505050509080600a01604051806060016040529081600082018054610d0790612ac3565b80601f0160208091040260200160405190810160405280929190818152602001828054610d3390612ac3565b8015610d805780601f10610d5557610100808354040283529160200191610d80565b820191906000526020600020905b815481529060010190602001808311610d6357829003601f168201915b505050505081526020016001820160009054906101000a900460ff161515151581526020016001820160019054906101000a900473ffffffffffffffffffffffffffffffffffffffff1673ffffffffffffffffffffffffffffffffffffffff1673ffffffffffffffffffffffffffffffffffffffff168152505090508b565b610e07611f62565b6000600283604051610e19919061281b565b908152602001604051809103902060009054906101000a900473ffffffffffffffffffffffffffffffffffffffff169050600160008273ffffffffffffffffffffffffffffffffffffffff1673ffffffffffffffffffffffffffffffffffffffff16815260200190815260200160002060405180610160016040529081600082018054610ea590612ac3565b80601f0160208091040260200160405190810160405280929190818152602001828054610ed190612ac3565b8015610f1e5780601f10610ef357610100808354040283529160200191610f1e565b820191906000526020600020905b815481529060010190602001808311610f0157829003601f168201915b505050505081526020016001820160009054906101000a900460ff16151515158152602001600282018054610f5290612ac3565b80601f0160208091040260200160405190810160405280929190818152602001828054610f7e90612ac3565b8015610fcb5780601f10610fa057610100808354040283529160200191610fcb565b820191906000526020600020905b815481529060010190602001808311610fae57829003601f168201915b50505050508152602001600382018054610fe490612ac3565b80601f016020809104026020016040519081016040528092919081815260200182805461101090612ac3565b801561105d5780601f106110325761010080835404028352916020019161105d565b820191906000526020600020905b81548152906001019060200180831161104057829003601f168201915b5050505050815260200160048201805461107690612ac3565b80601f01602080910402602001604051908101604052809291908181526020018280546110a290612ac3565b80156110ef5780601f106110c4576101008083540402835291602001916110ef565b820191906000526020600020905b8154815290600101906020018083116110d257829003601f168201915b5050505050815260200160058201805461110890612ac3565b80601f016020809104026020016040519081016040528092919081815260200182805461113490612ac3565b80156111815780601f1061115657610100808354040283529160200191611181565b820191906000526020600020905b81548152906001019060200180831161116457829003601f168201915b5050505050815260200160068201805461119a90612ac3565b80601f01602080910402602001604051908101604052809291908181526020018280546111c690612ac3565b80156112135780601f106111e857610100808354040283529160200191611213565b820191906000526020600020905b8154815290600101906020018083116111f657829003601f168201915b505050505081526020016007820154815260200160088201805461123690612ac3565b80601f016020809104026020016040519081016040528092919081815260200182805461126290612ac3565b80156112af5780601f10611284576101008083540402835291602001916112af565b820191906000526020600020905b81548152906001019060200180831161129257829003601f168201915b505050505081526020016009820180546112c890612ac3565b80601f01602080910402602001604051908101604052809291908181526020018280546112f490612ac3565b80156113415780601f1061131657610100808354040283529160200191611341565b820191906000526020600020905b81548152906001019060200180831161132457829003601f168201915b50505050508152602001600a820160405180606001604052908160008201805461136a90612ac3565b80601f016020809104026020016040519081016040528092919081815260200182805461139690612ac3565b80156113e35780601f106113b8576101008083540402835291602001916113e3565b820191906000526020600020905b8154815290600101906020018083116113c657829003601f168201915b505050505081526020016001820160009054906101000a900460ff161515151581526020016001820160019054906101000a900473ffffffffffffffffffffffffffffffffffffffff1673ffffffffffffffffffffffffffffffffffffffff1673ffffffffffffffffffffffffffffffffffffffff168152505081525050915050919050565b60006003600084815260200190815260200160002060009054906101000a900473ffffffffffffffffffffffffffffffffffffffff16905081600160008373ffffffffffffffffffffffffffffffffffffffff1673ffffffffffffffffffffffffffffffffffffffff168152602001908152602001600020600a0160010160006101000a81548160ff021916908315150217905550505050565b6000806003600084815260200190815260200160002060009054906101000a900473ffffffffffffffffffffffffffffffffffffffff169050836003600085815260200190815260200160002060006101000a81548173ffffffffffffffffffffffffffffffffffffffff021916908373ffffffffffffffffffffffffffffffffffffffff160217905550836002600160008473ffffffffffffffffffffffffffffffffffffffff1673ffffffffffffffffffffffffffffffffffffffff1681526020019081526020016000206000016040516115e09190612832565b908152602001604051809103902060006101000a81548173ffffffffffffffffffffffffffffffffffffffff021916908373ffffffffffffffffffffffffffffffffffffffff16021790555083600160008373ffffffffffffffffffffffffffffffffffffffff1673ffffffffffffffffffffffffffffffffffffffff168152602001908152602001600020600a0160010160016101000a81548173ffffffffffffffffffffffffffffffffffffffff021916908373ffffffffffffffffffffffffffffffffffffffff160217905550600160008273ffffffffffffffffffffffffffffffffffffffff1673ffffffffffffffffffffffffffffffffffffffff168152602001908152602001600020600160008673ffffffffffffffffffffffffffffffffffffffff1673ffffffffffffffffffffffffffffffffffffffff168152602001908152602001600020600082018160000190805461174290612ac3565b61174d929190611fc4565b506001820160009054906101000a900460ff168160010160006101000a81548160ff021916908315150217905550600282018160020190805461178f90612ac3565b61179a929190611fc4565b5060038201816003019080546117af90612ac3565b6117ba929190611fc4565b5060048201816004019080546117cf90612ac3565b6117da929190611fc4565b5060058201816005019080546117ef90612ac3565b6117fa929190611fc4565b50600682018160060190805461180f90612ac3565b61181a929190611fc4565b5060078201548160070155600882018160080190805461183990612ac3565b611844929190611fc4565b50600982018160090190805461185990612ac3565b611864929190611fc4565b50600a820181600a01600082018160000190805461188190612ac3565b61188c929190611fc4565b506001820160009054906101000a900460ff168160010160006101000a81548160ff0219169083151502179055506001820160019054906101000a900473ffffffffffffffffffffffffffffffffffffffff168160010160016101000a81548173ffffffffffffffffffffffffffffffffffffffff021916908373ffffffffffffffffffffffffffffffffffffffff1602179055505050905050600160008273ffffffffffffffffffffffffffffffffffffffff1673ffffffffffffffffffffffffffffffffffffffff168152602001908152602001600020600080820160006119769190612051565b6001820160006101000a81549060ff021916905560028201600061199a9190612051565b6003820160006119aa9190612051565b6004820160006119ba9190612051565b6005820160006119ca9190612051565b6006820160006119da9190612051565b60078201600090556008820160006119f29190612051565b600982016000611a029190612051565b600a820160008082016000611a179190612051565b6001820160006101000a81549060ff02191690556001820160016101000a81549073ffffffffffffffffffffffffffffffffffffffff021916905550505050600191505092915050565b600060405180606001604052808381526020016001151581526020013373ffffffffffffffffffffffffffffffffffffffff16815250905060006040518061016001604052808e81526020018d151581526020018c81526020018b81526020018a815260200189815260200188815260200187815260200186815260200185815260200183815250905060008190806001815401808255809150506001900390600052602060002090600c02016000909190919091506000820151816000019080519060200190611b33929190612091565b5060208201518160010160006101000a81548160ff0219169083151502179055506040820151816002019080519060200190611b70929190612091565b506060820151816003019080519060200190611b8d929190612091565b506080820151816004019080519060200190611baa929190612091565b5060a0820151816005019080519060200190611bc7929190612091565b5060c0820151816006019080519060200190611be4929190612091565b5060e08201518160070155610100820151816008019080519060200190611c0c929190612091565b50610120820151816009019080519060200190611c2a929190612091565b5061014082015181600a016000820151816000019080519060200190611c51929190612091565b5060208201518160010160006101000a81548160ff02191690831515021790555060408201518160010160016101000a81548173ffffffffffffffffffffffffffffffffffffffff021916908373ffffffffffffffffffffffffffffffffffffffff1602179055505050505080600160003373ffffffffffffffffffffffffffffffffffffffff1673ffffffffffffffffffffffffffffffffffffffff1681526020019081526020016000206000820151816000019080519060200190611d19929190612091565b5060208201518160010160006101000a81548160ff0219169083151502179055506040820151816002019080519060200190611d56929190612091565b506060820151816003019080519060200190611d73929190612091565b506080820151816004019080519060200190611d90929190612091565b5060a0820151816005019080519060200190611dad929190612091565b5060c0820151816006019080519060200190611dca929190612091565b5060e08201518160070155610100820151816008019080519060200190611df2929190612091565b50610120820151816009019080519060200190611e10929190612091565b5061014082015181600a016000820151816000019080519060200190611e37929190612091565b5060208201518160010160006101000a81548160ff02191690831515021790555060408201518160010160016101000a81548173ffffffffffffffffffffffffffffffffffffffff021916908373ffffffffffffffffffffffffffffffffffffffff16021790555050509050503360028e604051611eb5919061281b565b908152602001604051809103902060006101000a81548173ffffffffffffffffffffffffffffffffffffffff021916908373ffffffffffffffffffffffffffffffffffffffff160217905550336003600088815260200190815260200160002060006101000a81548173ffffffffffffffffffffffffffffffffffffffff021916908373ffffffffffffffffffffffffffffffffffffffff16021790555050505050505050505050505050565b604051806101600160405280606081526020016000151581526020016060815260200160608152602001606081526020016060815260200160608152602001600081526020016060815260200160608152602001611fbe612117565b81525090565b828054611fd090612ac3565b90600052602060002090601f016020900481019282611ff25760008555612040565b82601f106120035780548555612040565b8280016001018555821561204057600052602060002091601f016020900482015b8281111561203f578254825591600101919060010190612024565b5b50905061204d9190612150565b5090565b50805461205d90612ac3565b6000825580601f1061206f575061208e565b601f01602090049060005260206000209081019061208d9190612150565b5b50565b82805461209d90612ac3565b90600052602060002090601f0160209004810192826120bf5760008555612106565b82601f106120d857805160ff1916838001178555612106565b82800160010185558215612106579182015b828111156121055782518255916020019190600101906120ea565b5b5090506121139190612150565b5090565b604051806060016040528060608152602001600015158152602001600073ffffffffffffffffffffffffffffffffffffffff1681525090565b5b80821115612169576000816000905550600101612151565b5090565b600061218061217b846129bc565b61298b565b90508281526020810184848401111561219857600080fd5b6121a3848285612a81565b509392505050565b6000813590506121ba81612b64565b92915050565b6000813590506121cf81612b7b565b92915050565b600082601f8301126121e657600080fd5b81356121f684826020860161216d565b91505092915050565b60008135905061220e81612b92565b92915050565b60006020828403121561222657600080fd5b6000612234848285016121ab565b91505092915050565b6000806040838503121561225057600080fd5b600061225e858286016121ab565b925050602061226f858286016121ff565b9150509250929050565b60006020828403121561228b57600080fd5b600082013567ffffffffffffffff8111156122a557600080fd5b6122b1848285016121d5565b91505092915050565b60008060008060008060008060008060006101608c8e0312156122dc57600080fd5b60008c013567ffffffffffffffff8111156122f657600080fd5b6123028e828f016121d5565b9b505060206123138e828f016121c0565b9a505060408c013567ffffffffffffffff81111561233057600080fd5b61233c8e828f016121d5565b99505060608c013567ffffffffffffffff81111561235957600080fd5b6123658e828f016121d5565b98505060808c013567ffffffffffffffff81111561238257600080fd5b61238e8e828f016121d5565b97505060a08c013567ffffffffffffffff8111156123ab57600080fd5b6123b78e828f016121d5565b96505060c08c013567ffffffffffffffff8111156123d457600080fd5b6123e08e828f016121d5565b95505060e06123f18e828f016121ff565b9450506101008c013567ffffffffffffffff81111561240f57600080fd5b61241b8e828f016121d5565b9350506101208c013567ffffffffffffffff81111561243957600080fd5b6124458e828f016121d5565b9250506101408c013567ffffffffffffffff81111561246357600080fd5b61246f8e828f016121d5565b9150509295989b509295989b9093969950565b60006020828403121561249457600080fd5b60006124a2848285016121ff565b91505092915050565b600080604083850312156124be57600080fd5b60006124cc858286016121ff565b92505060206124dd858286016121c0565b9150509250929050565b6124f081612a39565b82525050565b6124ff81612a4b565b82525050565b61250e81612a4b565b82525050565b600061251f82612a01565b6125298185612a0c565b9350612539818560208601612a90565b61254281612b53565b840191505092915050565b600061255882612a01565b6125628185612a1d565b9350612572818560208601612a90565b61257b81612b53565b840191505092915050565b600061259182612a01565b61259b8185612a2e565b93506125ab818560208601612a90565b80840191505092915050565b600081546125c481612ac3565b6125ce8186612a2e565b945060018216600081146125e957600181146125fa5761262d565b60ff1983168652818601935061262d565b612603856129ec565b60005b8381101561262557815481890152600182019150602081019050612606565b838801955050505b50505092915050565b60006101608301600083015184820360008601526126548282612514565b915050602083015161266960208601826124f6565b50604083015184820360408601526126818282612514565b9150506060830151848203606086015261269b8282612514565b915050608083015184820360808601526126b58282612514565b91505060a083015184820360a08601526126cf8282612514565b91505060c083015184820360c08601526126e98282612514565b91505060e08301516126fe60e08601826127fd565b506101008301518482036101008601526127188282612514565b9150506101208301518482036101208601526127348282612514565b915050610140830151848203610140860152612750828261275d565b9150508091505092915050565b6000606083016000830151848203600086015261277a8282612514565b915050602083015161278f60208601826124f6565b5060408301516127a260408601826124e7565b508091505092915050565b600060608301600083015184820360008601526127ca8282612514565b91505060208301516127df60208601826124f6565b5060408301516127f260408601826124e7565b508091505092915050565b61280681612a77565b82525050565b61281581612a77565b82525050565b60006128278284612586565b915081905092915050565b600061283e82846125b7565b915081905092915050565b600060208201905061285e6000830184612505565b92915050565b600061016082019050818103600083015261287f818e61254d565b905061288e602083018d612505565b81810360408301526128a0818c61254d565b905081810360608301526128b4818b61254d565b905081810360808301526128c8818a61254d565b905081810360a08301526128dc818961254d565b905081810360c08301526128f0818861254d565b90506128ff60e083018761280c565b818103610100830152612912818661254d565b9050818103610120830152612927818561254d565b905081810361014083015261293c81846127ad565b90509c9b505050505050505050505050565b600060208201905081810360008301526129688184612636565b905092915050565b6000602082019050612985600083018461280c565b92915050565b6000604051905081810181811067ffffffffffffffff821117156129b2576129b1612b24565b5b8060405250919050565b600067ffffffffffffffff8211156129d7576129d6612b24565b5b601f19601f8301169050602081019050919050565b60008190508160005260206000209050919050565b600081519050919050565b600082825260208201905092915050565b600082825260208201905092915050565b600081905092915050565b6000612a4482612a57565b9050919050565b60008115159050919050565b600073ffffffffffffffffffffffffffffffffffffffff82169050919050565b6000819050919050565b82818337600083830152505050565b60005b83811015612aae578082015181840152602081019050612a93565b83811115612abd576000848401525b50505050565b60006002820490506001821680612adb57607f821691505b60208210811415612aef57612aee612af5565b5b50919050565b7f4e487b7100000000000000000000000000000000000000000000000000000000600052602260045260246000fd5b7f4e487b7100000000000000000000000000000000000000000000000000000000600052604160045260246000fd5b6000601f19601f8301169050919050565b612b6d81612a39565b8114612b7857600080fd5b50565b612b8481612a4b565b8114612b8f57600080fd5b50565b612b9b81612a77565b8114612ba657600080fd5b5056fea264697066735822122097e65415ba7524310475fb3d453decbee51e529d1f4817c362d2dd7b9f06382664736f6c63430008000033",
  "immutableReferences": {},
  "source": "// SPDX-License-Identifier: GPL-3.0\npragma solidity ^0.8.0;\npragma experimental ABIEncoderV2;\n\ncontract watchContract {\n    \n    struct watchinfo{\n        string  filePath;\n        bool watchStatus;\n        address ownerAddress;\n    }\n    \n    struct watch {\n        string ownerName;\n        bool watchInsured;\n        string dateOfLoss;\n        string  cityOfLoss;\n        string  lossDescription;\n        string  brand;\n        string  model;\n        uint256 serialNumber;\n        string  description;\n        string  material;\n        watchinfo info; \n    }\n    \n    watch [] public watches;\n    \n    \n    mapping(address => watch ) public watchDetail;\n    mapping(string => address) getAddressFromName;\n    mapping(uint256 => address) getAddressFromserialNumber;\n    \n    \n    \n    function saveWatchDetails(\n        string memory _ownername,\n        bool _watchInsured, \n        string memory _dateOfloss,\n        string memory _cityOfLoss,\n        string memory _lossDescription,\n        string memory _brand,\n        string memory _model,\n        uint256 _serialNumber,\n        string memory _description,\n        string memory _material,\n        string memory _filePath\n        ) public {\n            \n        watchinfo memory _info = watchinfo(\n            _filePath,\n            true,\n            msg.sender\n            );\n            \n       watch memory x = watch(\n       _ownername,\n       _watchInsured,\n       _dateOfloss,\n       _cityOfLoss,\n       _lossDescription,\n       _brand,\n       _model,\n       _serialNumber,\n       _description,\n       _material,\n       _info\n       );\n       \n       watches.push(x);\n       watchDetail[msg.sender] = x;\n       getAddressFromName[_ownername] = msg.sender;\n       getAddressFromserialNumber[_serialNumber] = msg.sender;\n    }\n    \n    function getNumberOfWatches() public view returns(uint256) {\n        return watches.length;\n    }\n    \n    function searchByName(string memory ownername) public view returns(watch memory){\n        address contract_addr = getAddressFromName[ownername];\n        return watchDetail[contract_addr];\n    }\n    \n    function watchStatusByserialNumber(uint256 serialNumber) public view returns(bool){\n        address contractAddr = getAddressFromserialNumber[serialNumber];\n        return watchDetail[contractAddr].info.watchStatus;\n    }\n    \n     function setwatchStatusByserialNumber(uint256 serialNumber, bool watchStatus) public {\n        address contractAddr = getAddressFromserialNumber[serialNumber];\n        watchDetail[contractAddr].info.watchStatus = watchStatus;\n    }\n    \n    function transferWatch(address toAddress, uint256 serialNumber) public returns(bool response){\n        {\n            \n            address contract_addr = getAddressFromserialNumber[serialNumber];\n            \n            getAddressFromserialNumber[serialNumber] = toAddress;\n            getAddressFromName[watchDetail[contract_addr].ownerName] = toAddress;\n            watchDetail[contract_addr].info.ownerAddress = toAddress;\n            watchDetail[toAddress] = watchDetail[contract_addr];\n            delete watchDetail[contract_addr];\n            \n            return true;\n        \n        }\n    }\n}",
  "sourcePath": "/Users/sumitpatel/Desktop/smartContractInteraction/contracts/Migrations.sol",
  "compiler": {
    "name": "solc",
    "version": "0.8.0+commit.c7dfd78e.Emscripten.clang"
  },
  "schemaVersion": "3.4.3",
  "updatedAt": "2021-12-10T03:37:57.638Z",
  "networkType": "ethereum",
  "devdoc": {
    "kind": "dev",
    "methods": {},
    "version": 1
  },
  "userdoc": {
    "kind": "user",
    "methods": {},
    "version": 1
  }
}