{
  "_format": "hh-sol-artifact-1",
  "contractName": "shipmentInformation",
  "sourceName": "contracts/shipmentInformation.sol",
  "abi": [
    {
      "inputs": [
        {
          "internalType": "uint256",
          "name": "",
          "type": "uint256"
        }
      ],
      "name": "ShipmentInformation",
      "outputs": [
        {
          "internalType": "uint256",
          "name": "shipmentnumber",
          "type": "uint256"
        },
        {
          "internalType": "uint256",
          "name": "ordernumber",
          "type": "uint256"
        },
        {
          "internalType": "address",
          "name": "orderby",
          "type": "address"
        },
        {
          "internalType": "string",
          "name": "timestamp",
          "type": "string"
        }
      ],
      "stateMutability": "view",
      "type": "function"
    },
    {
      "inputs": [
        {
          "internalType": "uint256",
          "name": "_shipmentnumber",
          "type": "uint256"
        }
      ],
      "name": "getShipmentdetailbynumber",
      "outputs": [
        {
          "components": [
            {
              "internalType": "uint256",
              "name": "shipmentnumber",
              "type": "uint256"
            },
            {
              "internalType": "uint256",
              "name": "ordernumber",
              "type": "uint256"
            },
            {
              "internalType": "address",
              "name": "orderby",
              "type": "address"
            },
            {
              "internalType": "string",
              "name": "timestamp",
              "type": "string"
            }
          ],
          "internalType": "struct shipmentInformation.shipmentdetails",
          "name": "",
          "type": "tuple"
        }
      ],
      "stateMutability": "view",
      "type": "function"
    },
    {
      "inputs": [
        {
          "internalType": "uint256",
          "name": "_shipmentnumber",
          "type": "uint256"
        },
        {
          "internalType": "uint256",
          "name": "_ordernumber",
          "type": "uint256"
        },
        {
          "internalType": "address",
          "name": "_orderby",
          "type": "address"
        },
        {
          "internalType": "string",
          "name": "_timestamp",
          "type": "string"
        }
      ],
      "name": "saveShipmentInformation",
      "outputs": [],
      "stateMutability": "nonpayable",
      "type": "function"
    }
  ],
  "bytecode": "0x608060405234801561001057600080fd5b50610984806100206000396000f3fe608060405234801561001057600080fd5b50600436106100415760003560e01c806332ea6afb14610046578063865b6cd1146100765780638cdbc3c914610092575b600080fd5b610060600480360381019061005b919061052a565b6100c5565b60405161006d91906106df565b60405180910390f35b610090600480360381019061008b9190610553565b6101ed565b005b6100ac60048036038101906100a7919061052a565b6102df565b6040516100bc9493929190610701565b60405180910390f35b6100cd6103b7565b60008083815260200190815260200160002060405180608001604052908160008201548152602001600182015481526020016002820160009054906101000a900473ffffffffffffffffffffffffffffffffffffffff1673ffffffffffffffffffffffffffffffffffffffff1673ffffffffffffffffffffffffffffffffffffffff1681526020016003820180546101649061084e565b80601f01602080910402602001604051908101604052809291908181526020018280546101909061084e565b80156101dd5780601f106101b2576101008083540402835291602001916101dd565b820191906000526020600020905b8154815290600101906020018083116101c057829003601f168201915b5050505050815250509050919050565b6101f56103b7565b848160000181815250508381602001818152505082816040019073ffffffffffffffffffffffffffffffffffffffff16908173ffffffffffffffffffffffffffffffffffffffff168152505081816060018190525080600080878152602001908152602001600020600082015181600001556020820151816001015560408201518160020160006101000a81548173ffffffffffffffffffffffffffffffffffffffff021916908373ffffffffffffffffffffffffffffffffffffffff16021790555060608201518160030190805190602001906102d49291906103f5565b509050505050505050565b60006020528060005260406000206000915090508060000154908060010154908060020160009054906101000a900473ffffffffffffffffffffffffffffffffffffffff16908060030180546103349061084e565b80601f01602080910402602001604051908101604052809291908181526020018280546103609061084e565b80156103ad5780601f10610382576101008083540402835291602001916103ad565b820191906000526020600020905b81548152906001019060200180831161039057829003601f168201915b5050505050905084565b60405180608001604052806000815260200160008152602001600073ffffffffffffffffffffffffffffffffffffffff168152602001606081525090565b8280546104019061084e565b90600052602060002090601f016020900481019282610423576000855561046a565b82601f1061043c57805160ff191683800117855561046a565b8280016001018555821561046a579182015b8281111561046957825182559160200191906001019061044e565b5b509050610477919061047b565b5090565b5b8082111561049457600081600090555060010161047c565b5090565b60006104ab6104a684610772565b61074d565b9050828152602081018484840111156104c357600080fd5b6104ce84828561080c565b509392505050565b6000813590506104e581610920565b92915050565b600082601f8301126104fc57600080fd5b813561050c848260208601610498565b91505092915050565b60008135905061052481610937565b92915050565b60006020828403121561053c57600080fd5b600061054a84828501610515565b91505092915050565b6000806000806080858703121561056957600080fd5b600061057787828801610515565b945050602061058887828801610515565b9350506040610599878288016104d6565b925050606085013567ffffffffffffffff8111156105b657600080fd5b6105c2878288016104eb565b91505092959194509250565b6105d7816107d0565b82525050565b6105e6816107d0565b82525050565b60006105f7826107a3565b61060181856107ae565b935061061181856020860161081b565b61061a8161090f565b840191505092915050565b6000610630826107a3565b61063a81856107bf565b935061064a81856020860161081b565b6106538161090f565b840191505092915050565b600060808301600083015161067660008601826106c1565b50602083015161068960208601826106c1565b50604083015161069c60408601826105ce565b50606083015184820360608601526106b482826105ec565b9150508091505092915050565b6106ca81610802565b82525050565b6106d981610802565b82525050565b600060208201905081810360008301526106f9818461065e565b905092915050565b600060808201905061071660008301876106d0565b61072360208301866106d0565b61073060408301856105dd565b81810360608301526107428184610625565b905095945050505050565b6000610757610768565b90506107638282610880565b919050565b6000604051905090565b600067ffffffffffffffff82111561078d5761078c6108e0565b5b6107968261090f565b9050602081019050919050565b600081519050919050565b600082825260208201905092915050565b600082825260208201905092915050565b60006107db826107e2565b9050919050565b600073ffffffffffffffffffffffffffffffffffffffff82169050919050565b6000819050919050565b82818337600083830152505050565b60005b8381101561083957808201518184015260208101905061081e565b83811115610848576000848401525b50505050565b6000600282049050600182168061086657607f821691505b6020821081141561087a576108796108b1565b5b50919050565b6108898261090f565b810181811067ffffffffffffffff821117156108a8576108a76108e0565b5b80604052505050565b7f4e487b7100000000000000000000000000000000000000000000000000000000600052602260045260246000fd5b7f4e487b7100000000000000000000000000000000000000000000000000000000600052604160045260246000fd5b6000601f19601f8301169050919050565b610929816107d0565b811461093457600080fd5b50565b61094081610802565b811461094b57600080fd5b5056fea2646970667358221220833f0d3844e4acebd3ab0e5e8f9298409839a16c8a55da8e285639f46953fbb464736f6c63430008040033",
  "linkReferences": {},
  "deployedLinkReferences": {}
}